
00001102910293920901       TIULO                                   RUA LORTYU                              10199400003     RIO DE SALLL        RIO DE JANEIRO        00011921010                               
00002102910293920902O00000004400000035                                                                                                                                                00000001ANANIAS       001
00003102910293920902O00000004400000035                                                                                                                                                00000001ANANIAS       001
00004102910293920902O00000004400000035                                                                                                                                                00000003MARCELA PRATA 001
00005102910293920902O00000004400000035                                                                                                                                                00000003MARCELA PRATA 001
00006102910293920902O00000004400000035                                                                                                                                                00000002MARLENE       001
00007102910293920902O00000004400000035                                                                                                                                                00000002MARLENE       001
0000810291029392090300006000000264000000000009240                                                                                                                                                              
999999999999999999999999999999999999999999999999999999999999999999999999999999999999999999999999999999999999999999999999999999999999999999999999999999999999999999999999999999999999999999999999999999999999999