
00001012309239021931       MONROMA                                 RUA Z                                   10199400005                                               0001                                      
00002012309239021932M00000000100000035                                                                                                                                                00000001DANIEL LUIZ MAFIM
00003012309239021932O00000003000000035                                                                                                                                                00000001DANIEL LUIZ MAFIM
00004012309239021932O00000003000000035                                                                                                                                                00000001DANIEL LUIZ MAFIM
00005012309239021932O00000003000000035                                                                                                                                                00000001DANIEL LUIZ MAFIM
00006012309239021932T00000003000000035                                                                                                                                                00000001DANIEL LUIZ MAFIM
00007012309239021932M00000000100000140                                                                                                                                                00000003MANDRAKE      002
00008012309239021932O00000004400000035                                                                                                                                                00000003MANDRAKE      002
00009012309239021932O00000004400000035                                                                                                                                                00000010MARISA        000
00010012309239021932O00000004400000035                                                                                                                                                00000010MARISA        000
00011012309239021932O00000004400000035                                                                                                                                                00000002ROQUETE       001
00012012309239021932O00000004400000035                                                                                                                                                00000002ROQUETE       001
0001301230923902193300011000000342000000000012075                                                                                                                                                              
999999999999999999999999999999999999999999999999999999999999999999999999999999999999999999999999999999999999999999999999999999999999999999999999999999999999999999999999999999999999999999999999999999999999999